ERBSI3861409062025
DINAB0603365010520255100100200747814KELBIR              ASCANIO             JIMENEZ             HERRERA             M23021965CNA                                                          NOB00200047413000000000AYDA                LINA                SEGURA              LOPEZ               15071960F081020130000000000000000P00A00000000000000000000000000000000000000000000000000000000000A
DINAB0603366010520251400100104882683MILAGROS            FIOR DALIZA         PERALTA             DE CUEVAS           F23011963CNA                                                          NOB00104917125000000000TOMAS               AQUINO              CUEVAS              CARVAJAL            07041958M100320250000000000000000P00J00000000000000000000000000000000000000000000000000000000000A
DINAB0603367020520251400107100110894BELKIS              ANTONIA             MERCADO             MERCEDES            F15091971CNA                                                          NOB13600068897000000000ELADIO                                  SANDOVAL            SANCHEZ             28051953M090220250000000000000000P00J00000000000000000000000000000000000000000000000000000000000A
DINAB0603367020520251400240218951123AUGUSTO             ELADYMIR            SANDOVAL            MERCADO             M27112007HBELKIS ANTONIA MERCADO MERCEDES                             NOB13600068897000000000ELADIO                                  SANDOVAL            SANCHEZ             28051953M090220250000000000000000P00J00000000000000000000000000000000000000000000000000000000000A
DINAB0603368020520251400100102412137REYNALDO            RAFAEL DE JESUS     HERNANDEZ           ROSA                M09021964CNA                                                          NOB05900112375000000000ESTEL               MARIVEL             LAVANDIER           DE HERNANDEZ        16011966F180220240000000000000000P00J00000000000000000000000000000000000000000000000000000000000A
DINAB0603369080520251400100500083845SANTIAGO                                MANZUETA            DE LEON             M16071950CNA                                                          NOB00500077193000000000FELICITA                                DE LACRUZ                               10071949F030420250000000000000000P00J00000000000000000000000000000000000000000000000000000000000A
DINAB0603371060520255100103300114836CARMEN              RAFAEL              MOREL               GUZMAN              M27031948CNA                                                          NOB03300180423000000000AMARILIS                                NUNEZ               MENDOZA DE MOREL    30011967F011220240000000000000000P00A00000000000000000000000000000000000000000000000000000000000A
DINAB0603372080520251400106800222934ANA                 ROSA                RODRIGUEZ           DE GUERRERO         F20091959CNA                                                          NOB06800002286000000000LUIS                ANTONIO             GUERRERO            DE JESUS            11101956M080420250000000000000000P00J00000000000000000000000000000000000000000000000000000000000A
DINAB0603373080520255100107700030864JOSEFINA            DEL MILAGRO         TRINIDAD            DE PEREZ            F21081967CNA                                                          NOB02000101960000000000RAFAEL              ADONIS              PEREZ               FLORIAN             07091956M010320250000000000000000P00A00000000000000000000000000000000000000000000000000000000000A
DINAB0603374080520255100101200778536MARINELYS                               MONTERO             LEBRON              F08011980CNA                                                          NOB01200759965000000000JUAN                AUGUSTO             DE LOS SANTOS       MATEO               12101978M120220250000000000000000P00A00000000000000000000000000000000000000000000000000000000000A
DINAB0603374080520255100240210457764JHOAN               ENMANUEL            DE LOS SANTOS       MONTERO             M09032007HNA                                                          NOB01200759965000000000JUAN                AUGUSTO             DE LOS SANTOS       MATEO               12101978M120220250000000000000000P00A00000000000000000000000000000000000000000000000000000000000A
DINAB0603374080520255100340205013013SARAH               RACHELL             DE LOS SANTOS       MONTERO             F31072008HMARINELYS MONTERO LEBRON                                    NOB01200759965000000000JUAN                AUGUSTO             DE LOS SANTOS       MATEO               12101978M120220250000000000000000P00A00000000000000000000000000000000000000000000000000000000000A
DINAB0603375130520255100140233464573ADAMS               ALEJANDRO           BELTRE              PEREZ               M22112006HNA                                                          NOB01200707162000000000ADA                 IRIS                PEREZ               CABRERA             27081977F201220230000000000000000P00A00000000000000000000000000000000000000000000000000000000000A
DINAB0603375130520255100240202343519ANA                 MARIA               SUERO               PEREZ               F01102009HEDWAR CLODOMIRO ENRIQUE SUERO ARBAJE                        NOB01200707162000000000ADA                 IRIS                PEREZ               CABRERA             27081977F201220230000000000000000P00A00000000000000000000000000000000000000000000000000000000000A
DINAB0603375130520255100340205666456ALAN                ALEXANDER           ROMERO              PEREZ               M21012013HALGELIX ALEXANDER ROMERO SUERO                              NOB01200707162000000000ADA                 IRIS                PEREZ               CABRERA             27081977F201220230000000000000000P00A00000000000000000000000000000000000000000000000000000000000A
DINAB0603375130520255100440216944385ARIEL               ALEXANDER           ROMERO              PEREZ               M29012015HALGELIX ALEXANDER ROMERO SUERO                              NOB01200707162000000000ADA                 IRIS                PEREZ               CABRERA             27081977F201220230000000000000000P00A00000000000000000000000000000000000000000000000000000000000A
DINAB0603375130520255100540242582647ADRIAN              ALEXANDER           ROMERO              PEREZ               M02122017HALGELIX ALEXANDER ROMERO SUERO                              NOB01200707162000000000ADA                 IRIS                PEREZ               CABRERA             27081977F201220230000000000000000P00A00000000000000000000000000000000000000000000000000000000000A
DINAB0603376020520251400106400124662MARIANELA                               CRUZ                GONZALEZ DE BALBI   F24061949CNA                                                          NOB05600376288000000000JUAN                YSIDRO              BALBI               APONTE              31071948M070220250000000000000000P00J00000000000000000000000000000000000000000000000000000000000A
DINAB0603377130520251400102300366644ANA                 DILSIA              PERALTA             DE MACHUCA          F23091958CNA                                                          NOB02300052012000000000DARIO                                   MACHUCA             PANIAGUA            30041951M190420250000000000000000P00J00000000000000000000000000000000000000000000000000000000000A
DINAB0603378150520251400106500017451ARCEDO                                  FORCHUE             SHEPHARD            M05011959CNA                                                          NOB06500003485000000000SANTA                                   RADNEY              DE PENA DE FORCHUE  20061960F190120250000000000000000P00J00000000000000000000000000000000000000000000000000000000000A
DINAB0603379150520255100105900118125AGUSTINA                                GOMEZ               DE BURGOS           F24071971CNA                                                          NOB05900102160000000000JULIAN              OSCAR               BURGOS              JOAQUIN             02051968M170320250000000000000000P00A00000000000000000000000000000000000000000000000000000000000A
DINAB0603380150520255100101200025771ALBERTO             ALFONSO             MATEO               BELTRE              M07081969CNA                                                          NOB01200499810000000000ANA                                     JIMENEZ             RAMIREZ             29071971F270120250000000000000000P00A00000000000000000000000000000000000000000000000000000000000A
DINAB0603381080520255100113600081601ELIGIO                                  CASTILLO            CORPORAN            M25041955CNA                                                          NOB13600077641000000000MARTINA                                 CRUZ                HIERRO              10021962F060720240000000000000000P00A00000000000000000000000000000000000000000000000000000000000A
DINAB0603382230520255100100200905610JOSE                MANUEL              PENA                                    M22021963CNA                                                          NOB00200543247000000000ELIDANIA                                MARTE               VALENZUELA DE PENA  18021969F010920240000000000000000P00A00000000000000000000000000000000000000000000000000000000000A
DINAB0603383200520251400102300545981PEDRO                                   GARCIA                                  M20101952CNA                                                          NOB02300260243000000000YOLANDA                                 GUERRERO                                01081958F041020240000000000000000P00P00000000000000000000000000000000000000000000000000000000000A
DINAB0603384200520251400100109554352RAMON               MIGUEL              REYES               CALDERON            M29091959CNA                                                          NOB00109536219000000000JUANA               DE JESUS            MORENO              DE REYES            24061962F290120250000000000000000P00J00000000000000000000000000000000000000000000000000000000000A
DINAB0603385190520255100140255103893CRISTAL                                 NUNEZ               AGÜERO              F14032023HCARLOS MANUEL SANCHEZ                                       NOB02301575318000000000ARASELI                                 AGÜERO              AMANCIO             14041988F100920240000000000000000P00A00000000000000000000000000000000000000000000000000000000000A
DINAB0603386190520251400106800198944EVARISTA                                LARA                SANCHEZ             F26101943MNA                                                          NOB00200288736000000000ANA                 LUISA               DONE                LARA                05111972F300120250000000000000000P00J00000000000000000000000000000000000000000000000000000000000A
DINAB0603387210520255100101400105266ANA                 DE JESUS            OGANDO              MONTERO             F17041975CNA                                                          NOB01400090252000000000FELIX               SIMEON              GARABITO            RAMIREZ             07101969M270220250000000000000000P00A00000000000000000000000000000000000000000000000000000000000A
DINAB0603387210520255100240241010145CESAR               APOLINAR            GARABITO            OGANDO              M22012006HNA                                                          NOB01400090252000000000FELIX               SIMEON              GARABITO            RAMIREZ             07101969M270220250000000000000000P00A00000000000000000000000000000000000000000000000000000000000A
DINAB0603387210520255100340246726414YABEL                                   GARABITO            OGANDO              F27022025HANA DE JESUS OGANDO MONTERO                                 NOB01400090252000000000FELIX               SIMEON              GARABITO            RAMIREZ             07101969M270220250000000000000000P00A00000000000000000000000000000000000000000000000000000000000A
DINAB0603389140520251400103101933152DELCIA              ARELIS              ACOSTA              DE MESON            F05071962CNA                                                          NOB03100280894000000000FERNANDO            ENRIQUE             MESON                                   05051956M101220240000000000000000P00J00000000000000000000000000000000000000000000000000000000000A
DINAB0603390220520255100101600128688CRISTINO                                RAMON               FORTUNA             M23071977CNA                                                          NOB00117988386000000000MARIELA                                 JIRON               MILIANO             30121985F041020230000000000000000P00A00000000000000000000000000000000000000000000000000000000000A
DINAB0603390220520255100240215888260SAID                DAVID               RAMON               JIRON               M08052014HCRISTINO RAMON FORTUNA                                      NOB00117988386000000000MARIELA                                 JIRON               MILIANO             30121985F041020230000000000000000P00A00000000000000000000000000000000000000000000000000000000000A
DINAB0603391290520255100101500063233FELIX                                   ROSARIO             MORETA              M11071992CNA                                                          NOB22500810951000000000KIRSI                                   JAVIER              HEREDIA             20051993F190220250000000000000000P00A00000000000000000000000000000000000000000000000000000000000A
DINAB0603391290520255100240249869724AYRIS               KAMILLE             ROSARIO             JAVIER              F04082020HFELIX ROSARIO MORETA                                        NOB22500810951000000000KIRSI                                   JAVIER              HEREDIA             20051993F190220250000000000000000P00A00000000000000000000000000000000000000000000000000000000000A
DINAB0603393300520255100140223281383KATHERIN            ELIZABETH           REYES               LAJARA              F20061991HJOSE JOAQUIN LAJARA RIVERA                                  SIB01000064665000000000SANDRA              HILDA               LAJARA              RIVERA              22071961F270620220000000000000000P00A00000000000000000000000000000000000000000000000000000000000A
DINAB0603394300520251400102400247330JUANA               MERCEDES            CARABALLO                               F14021979CNA                                                          NOB02400006132000000000ADOLFO                                  JIMENEZ             CASTRO              03091945M030220250000000000000000P00J00000000000000000000000000000000000000000000000000000000000A
S00040